:020000040800F2
:10000000180D0020CD0100084D3100088D1D00089D
:10001000493100082D0300082539000800000000C0
:10002000000000000000000000000000B5370008DC
:10003000310300080000000089370008B7370008C6
:10004000E7010008E7010008E7010008E7010008F0
:10005000E7010008E7010008E7010008E7010008E0
:10006000E7010008E7010008E7010008E7010008D0
:10007000E7010008E7010008E7010008E7010008C0
:10008000E7010008E7010008E7010008E7010008B0
:10009000E7010008E7010008E7010008E7010008A0
:1000A000E7010008E7010008E7010008E701000890
:1000B000E7010008E7010008E7010008E701000880
:1000C000E7010008911D0008E7010008E7010008AA
:1000D000E7010008E7010008E7010008E701000860
:1000E000E7010008E7010008E7010008E701000850
:1000F000E7010008E7010008E7010008E701000840
:10010000E7010008E7010008E7010008E70100082F
:10011000E7010008E7010008E7010008E70100081F
:10012000E7010008E7010008E7010008E70100080F
:1001300000F002F800F03AF80AA090E8000C8244BF
:100140008344AAF10107DA4501D100F02FF8AFF29C
:10015000090EBAE80F0013F0010F18BFFB1A43F0A5
:1001600001031847AC510000CC510000103A24BFE5
:1001700078C878C1FAD8520724BF30C830C144BF0C
:1001800004680C607047000000230024002500264E
:10019000103A28BF78C1FBD8520728BF30C148BFEA
:1001A0000B6070471FB51FBD10B510BD00F08CF877
:1001B0001146FFF7F7FF03F06FFC00F0AAF803B455
:1001C000FFF7F2FF03BC03F0CBFB000009488047B8
:1001D00009480047FEE7FEE7FEE7FEE7FEE7FEE729
:1001E000FEE7FEE7FEE7FEE704480549054A064B41
:1001F000704700002538000831010008180700206A
:10020000180D00201809002018090020704710B5AB
:10021000203AC0F00B80B1E81850203AA0E81850FE
:10022000B1E81850A0E81850BFF4F5AF5FEA027CBF
:1002300024BFB1E81850A0E8185044BF18C918C02E
:10024000BDE810405FEA827C24BF51F8043B40F8CF
:10025000043B08BF7047D20728BF31F8023B48BFB4
:1002600011F8012B28BF20F8023B48BF00F8012BF2
:1002700070474FF0000200B5134694469646203969
:1002800022BFA0E80C50A0E80C50B1F12001BFF44F
:10029000F7AF090728BFA0E80C5048BF0CC05DF8B5
:1002A00004EB890028BF40F8042B08BF704748BF03
:1002B00020F8022B11F0804F18BF00F8012B704777
:1002C0007047704770477047754600F02BF8AE4690
:1002D00005006946534620F00700854618B020B552
:1002E000FFF782FFBDE820404FF000064FF0000707
:1002F0004FF000084FF0000B21F00701AC46ACE8CE
:10030000C009ACE8C009ACE8C009ACE8C0098D463A
:10031000704710B50446AFF300802046BDE810409A
:10032000FFF74DBF00487047B806002000BFFEE74A
:10033000704772B600BFFEE770B50446002594F81A
:100340002100022803D00420A0630125C1E0206819
:10035000006820F00E00216808602068006820F026
:100360000100216808605C492068884252D95A49D6
:1003700078392068884201D1012047E05649643924
:100380002068884201D1102040E05349503920684C
:10039000884201D1801539E04F493C3920688842B4
:1003A00001D1801432E04C4928392068884202D1BA
:1003B0004FF480302AE0484914392068884202D13D
:1003C0004FF4801022E044492068884201D1400463
:1003D0001CE042492068884201D1012016E03F49D3
:1003E00014312068884201D110200FE03B492831A8
:1003F0002068884201D1801508E038493C312068E6
:10040000884201D1801401E04FF480303349091F44
:10041000086051E0304978392068884201D10120D4
:1004200047E02D4964392068884201D1102040E01E
:10043000294950392068884201D1801539E0264980
:100440003C392068884201D1801432E022492839A1
:100450002068884202D14FF480302AE01E491439C6
:100460002068884202D14FF4801022E01A492068A7
:10047000884201D140041CE018492068884201D11B
:10048000012016E0154914312068884201D110205E
:100490000FE0124928312068884201D1801508E018
:1004A0000E493C312068884201D1801401E04FF4AC
:1004B0008030094980394860012084F8210000BF5C
:1004C000002084F8200000BF606B10B12046616BF3
:1004D0008847284670BD00008000024008040240A2
:1004E000014691F82100704770B5044600F0C8F944
:1004F00006462546681C10B104480078054400BF34
:1005000000F0BEF9801BA842FAD370BD280000207D
:100510002DE9F847024600239C467BE14FF0010895
:1005200008FA03F4D1F8008008EA0400A0427DD163
:10053000DFF8F4A2D1F80480A8EB0A09D0453AD03C
:1005400014DCB8F1030F50D009DCB8F1000F31D042
:10055000B8F1010F1CD0B8F1020F49D120E0B8F179
:10056000110F18D0B8F1120F42D11EE0B9F5881F53
:1005700025D006DCB9F5803F20D0B9F5801F37D1F2
:100580001AE0B9F5001F18D0B9F5041F30D117E0F3
:10059000D1F80CC02DE0D1F80C8008F1040C28E053
:1005A000D1F80C8008F1080C23E0D1F80C8008F198
:1005B0000C0C1EE000BF00BF00BF00BF00BF00BFAB
:1005C000D1F80880B8F1000F02D14FF0040C0BE015
:1005D000D1F80880B8F1010F03D14FF0080C146175
:1005E00002E04FF0080C546103E04FF0000C00E013
:1005F00000BF00BFFF2801D8904601E002F10408C7
:100600004646FF2802D84FEA830803E0A3F1080812
:100610004FEA88084746D6F800804FF00F0909FADC
:1006200007F928EA09080CFA07F900E07AE048EA35
:100630000908C6F80080D1F8048008F08058B8F1A5
:10064000805F6FD100BFDFF8E481D8F8188048F0F0
:100650000108DFF8D891C9F81880C846D8F8188082
:1006600008F00108CDF8008000BF00BF4FEAB9389C
:100670004FEA930958F829504FEA83784FEA1879DE
:100680004FF00F0808FA09F825EA0805DFF8A081FD
:10069000424502D14FF0000824E0DFF8988142453E
:1006A00002D14FF001081DE0DFF88C81424502D1F4
:1006B0004FF0020816E0DFF88481424502D14FF086
:1006C00003080FE0DFF87881424502D14FF00408BB
:1006D00008E0DFF87081424502D14FF0050801E0E3
:1006E0004FF006084FEA83794FEA197908FA09F8BA
:1006F00048EA0505DFF850814FEA930948F8295088
:10070000D1F8048008F48038B8F5803F0BD1DFF8C9
:100710003C81D8F8008048EA0008DFF83091C9F839
:1007200000800AE075E0DFF82481D8F8008028EA2C
:100730000008DFF81891C9F80080D1F8048008F4A7
:100740000038B8F5003F0ED1DFF8008108F1040849
:10075000D8F8008048EA0008DFF8F09009F10409B1
:10076000C9F800800DE0DFF8E48008F10408D8F84B
:10077000008028EA0008DFF8D49009F10409C9F8DC
:100780000080D1F8048008F48018B8F5801F0ED1DD
:10079000DFF8B88008F10808D8F8008048EA0008B7
:1007A000DFF8A89009F10809C9F800800DE0DFF82A
:1007B0009C8008F10808D8F8008028EA0008DFF8D3
:1007C0008C9009F10809C9F80080D1F8048008F478
:1007D0000018B8F5001F0ED1DFF8708008F10C0882
:1007E000D8F8008048EA0008DFF8609009F10C09A9
:1007F000C9F800800DE0DFF8548008F10C08D8F843
:10080000008028EA0008DFF8449009F10C09C9F8D3
:1008100000805B1CD1F8008028FA03F8B8F1000FC3
:100820007FF47CAEBDE8F887000011100010024094
:1008300000080140000C014000100140001401407C
:1008400000180140001C0140080001400004014064
:10085000024693680B400BB1012000E00020704776
:1008600010B5C26821EA020302EA010443EA044324
:10087000036110BD0AB1016101E00B04036170471F
:100880000148006870470000200000207047704752
:100890002DE9F04705464FF0000928684668D5F86D
:1008A0002CA095F83E7095F83D80102F01D0402F78
:1008B00075D12868D0F818902868446904F00100C0
:1008C00060B9BAF52A0F02D0BAF12A4F01D101203E
:1008D00000E00020012801D1BDE8F08704F001000C
:1008E00048B1C6F3402030B1284601F059FA2846F5
:1008F00001F0EAFEB7E0C4F3C00030B1C6F3402017
:1009000018B1284601F08BFDADE0C4F3400030B1D2
:10091000C6F3402018B1284601F096FDA3E0C9F3C4
:10092000800040B32868406800F40060B0F5006FB4
:10093000E0D0C4F3C01048B1C6F3802030B1C4F396
:10094000800018B9284601F0FEFC8CE0C4F380005A
:100950000028CFD0C6F340200028CBD0B8F1210F1B
:1009600003D1284601F09FFC7DE0402F7BD1284633
:1009700001F0F9FE77E02868406800F40060B0F507
:10098000006F70D0C4F3801050B1C6F3802038B12E
:10099000C4F3800020B9284601F014FC63E00BE0AA
:1009A000C4F3800000285ED0C6F3402000285AD04F
:1009B000284601F074FB56E0286C10B128684469A1
:1009C00004E02868D0F8189028684469C4F340000F
:1009D00060B1C6F3402048B1286C10B12868D0F847
:1009E00018904946284602F09DF83CE0C4F30010F8
:1009F00030B1C6F3402018B1284602F0CBF832E0FF
:100A0000B8F1210F02D0B8F1290F16D1C4F3C010EC
:100A100048B1C6F3802030B1C4F3800018B928462D
:100A200002F05DF81FE0C4F38000E0B1C6F340209F
:100A3000C8B1284602F046F815E0C4F3801048B16A
:100A4000C6F3802030B1C4F3800018B9284602F004
:100A500016F808E0C4F3800028B1C6F3402010B1B6
:100A6000284601F0FFFF00BF36E7704770B5044627
:100A70000CB9012070BD94F83D0028B9002084F81D
:100A80003C00204600F03EFC242084F83D00206815
:100A9000006820F00100216808602068006840F4C8
:100AA0000040216808602068006820F40040216848
:100AB000086000F037FE05465C496068884206D849
:100AC0005B48854201D2012007E0002005E059483B
:100AD000854201D2012000E00020012800D1C9E7B1
:100AE0005548B5FBF0F62068406820F03F003043E1
:100AF000216848604D496068884201D8701C07E051
:100B00004FF4967070434FF47A71B0FBF1F0401CD3
:100B10002168096A21F03F010843216808624349BE
:100B20006068884214D8681E61684900B0FBF1F023
:100B3000401CC0F30B00042801D204203DE0681ED5
:100B400061684900B0FBF1F0401CC0F30B0034E0D9
:100B5000A06838B9681E616801EB4101B0FBF1F093
:100B6000401C0AE0681E616801EBC10202EB011142
:100B7000B0FBF1F0401C40F48040C0F30B0008B91A
:100B800001201AE0A06848B9681E616801EB4101C4
:100B9000B0FBF1F0401CC0F30B000CE0681E616874
:100BA00001EBC10202EB0111B0FBF1F0401CC0F3FC
:100BB0000B0040F4804040F400402168C9694CF6C5
:100BC000FF72914308432168C861D4E907010843D3
:100BD0002168096821F0C001084321680860D4E950
:100BE000031008432168896848F2FF3291430843A3
:100BF00021688860D4E9050108432168C96821F0AB
:100C0000FF0108432168C8602068006840F00100C7
:100C10002168086000202064202084F83D00002026
:100C2000206384F83E0000BF24E70000A086010096
:100C300080841E0000093D0040420F00704770474D
:100C4000704770471CB504463748007804280CD11B
:100C500000218D2002F0EEFB0021102002F0EAFBC3
:100C60000021AE2002F0E6FB5CE02F48007803286C
:100C70000FD100202D490870012003460022CDE944
:100C8000001078212A4800F0BDFA0020264908709B
:100C900048E02548007802280FD110202349087029
:100CA000012003460022CDE900107821204800F001
:100CB000A9FA03201C49087034E01B480078012879
:100CC00011D11C480078B030184908700120034643
:100CD0000022CDE900107821154800F093FA022097
:100CE000114908701EE010480078D8B980211248D8
:100CF000104A127800EBC21001234022CDE9000116
:100D000078210B4800F07EFA0A480078401C094917
:100D1000087008460078072801DD002008700120CF
:100D2000014908701CBD00001A0000201E000020B0
:100D3000200600201D000020CA0100202DE9FE4FE2
:100D400004460F4690469946DDE90CAB0E9E002006
:100D50000290FFF795FD054694F83D00202872D1DA
:100D600019230122CA492046009502F007F810B164
:100D70000220BDE8FE8F00BF94F83C00012801D19D
:100D80000220F6E7012084F83C0000BF20680068DC
:100D900000F0010028B92068006840F001002168D7
:100DA00008602068006820F4006021680860222044
:100DB00084F83D00402084F83E0000202064C4F800
:100DC00024A0A4F82AB0608D2085B248E0624B468A
:100DD000424639462046CDE9006501F023FD08B1C1
:100DE0000120C6E7208D88B900BF0020019020684F
:100DF0004069019020688069019000BF00BF2068B1
:100E0000006840F40070216808604BE0208D0128E4
:100E10001AD12068006820F480602168086072B6EA
:100E200000BF00200190206840690190206880691F
:100E3000019000BF00BF2068006840F40070216886
:100E4000086062B62EE020E1208D022819D12068CA
:100E5000006840F400602168086072B600BF00209E
:100E6000019020684069019020688069019000BF6E
:100E700000BF2068006820F480602168086062B6C6
:100E800010E02068006840F480602168086000BFBE
:100E900000200190206840690190206880690190DD
:100EA00000BF00BFE2E0208D03287DD8208D0128FF
:100EB00015D12A463146204602F005F808B1012036
:100EC00057E720680069616A0870606A401C6062C8
:100ED000208D401E2085608D401E6085C6E0208DDF
:100EE00002282CD1334600226B492046009501F0A0
:100EF00045FF08B101203CE772B62068006840F465
:100F000000702168086020680069616A0870606A82
:100F1000401C6062208D401E2085608D401E6085D3
:100F200062B620680069616A0870606A401C60628D
:100F3000208D401E2085608D401E608596E03346E2
:100F4000002255492046009501F018FF08B1012004
:100F50000FE72068006820F480602168086072B69E
:100F600020680069616A0870606A401C6062208DB8
:100F7000401E2085608D401E60854848006819210C
:100F8000B0FBF1F04FF47A71B0FBF1F0C0EBC000B0
:100F900000EB8000029000BF0298401E0290029871
:100FA000A8B90020206300E039E0202084F83D004B
:100FB000002084F83E00206C40F02000206462B6DF
:100FC00000BF002084F83C0000BF0120D1E620686B
:100FD0004069C0F380000028DED02068006840F43B
:100FE00000702168086020680069616A0870606AA2
:100FF000401C6062208D401E2085608D401E6085F3
:1010000062B620680069616A0870606A401C6062AC
:10101000208D401E2085608D401E608526E02A467A
:101020003146204601F04FFF08B10120A1E62068BB
:101030000069616A0870606A401C6062208D401E11
:101040002085608D401E608520684069C0F3800067
:1010500060B120680069616A0870606A401C606263
:10106000208D401E2085608D401E6085208D0028CB
:101070007FF419AF202084F83D00002084F83E0062
:1010800000BF84F83C0000BF73E6022071E6000058
:10109000020010000000FFFF040001002C000020EF
:1010A0002DE9FC5F04460F4690469946DDE90CABFE
:1010B0000E9EFFF7E5FB054694F83D0020287DD104
:1010C000192301224D492046009501F057FE10B129
:1010D0000220BDE8FC9F00BF94F83C00012801D12C
:1010E0000220F6E7012084F83C0000BF2068006879
:1010F00000F0010028B92068006840F00100216874
:1011000008602068006820F40060216808602120E1
:1011100084F83D00402084F83E0000202064C4F89C
:1011200024A0A4F82AB0608D20853548E0624B46A3
:10113000424639462046CDE9006501F023FC08B15E
:101140000120C6E731E02A463146204601F024FF5F
:1011500050B1206C042805D12068006840F400706C
:10116000216808600120B4E7606A0078216808619E
:10117000606A401C6062208D401E2085608D401E8C
:10118000608520684069C0F3800070B1208D60B137
:10119000606A007821680861606A401C6062208D86
:1011A000401E2085608D401E6085208D0028CAD19C
:1011B0002A463146204601F0B3FD00E01CE050B164
:1011C000206C042805D12068006840F40070216874
:1011D000086001207DE72068006840F40070216805
:1011E0000860202084F83D00002084F83E0000BF05
:1011F00084F83C0000BF6CE702206AE702001000A0
:101200000000FFFFF8B50446DDE906560020009017
:1012100094F83D0020286FD1384800681927B0FBAA
:10122000F7F04FF47A77B0FBF7F000EBC00707EB6D
:101230000010009000BF0098401E0090009890B9E8
:1012400000202063202084F83D00002084F83E0028
:10125000206C40F02000206400BF002084F83C0097
:1012600000BF0120F8BD20688069C0F3400000285D
:10127000E1D100BF94F83C00012801D10220F1E740
:10128000012084F83C0000BF2068006800F00100E5
:1012900028B92068006840F001002768386020689D
:1012A000006820F4006027683860212084F83D0041
:1012B000402084F83E000020206465626685608DD1
:1012C00020850F48E0626164A264E3640020206529
:1012D0002068006840F480702768386000BF0020F4
:1012E00084F83C0000BF2068406840F4E060276854
:1012F00078600020B6E7FFE70220B3E72C0000206B
:101300000000FFFF10B586B0044600200290039055
:10131000049005902F492068884225D100BF2E48AF
:10132000806940F008002C4988610846806900F017
:101330000800019000BF00BFC0200290122003905F
:101340000320059002A92548FFF7E2F800BF2248D4
:10135000C06940F400102049C8610846C06900F423
:101360000010019000BF32E01D49206888422ED154
:1013700000BF1948806940F0080017498861084695
:10138000806900F00800019000BF00BF4FF440608A
:101390000290122003900320059002A90F48FFF746
:1013A000B7F800BF0C48C06940F480000A49C86122
:1013B0000846C06900F48000019000BF00BF002211
:1013C0000121212000F090F8212000F07DF806B0E6
:1013D00010BD00000054004000100240000C01400D
:1013E0000058004070477047034800680349097877
:1013F00008440149086070472000002028000020B0
:1014000010B50848006840F0100006490860032045
:1014100000F0A8F80F2000F007F800F02BF80020EB
:1014200010BD00000020024070B504460E48007850
:101430004FF47A71B1FBF0F00C490968B1FBF0F59B
:10144000284600F00BFC08B1012070BD102C07D21B
:1014500000222146501E00F047F80548046001E0D4
:101460000120F2E70020F0E7280000202C000020F7
:101470002400002008B500BF1148806940F0010039
:101480000F4988610846806900F00100009000BFA4
:1014900000BF00BF0846C06940F08050C8610846E0
:1014A000C06900F08050009000BF00BF00BF054938
:1014B000486820F0E06040F00070486000BF08BD60
:1014C000001002400000014001460846002809DBE8
:1014D00000F01F0301229A4043099B0003F1E0231F
:1014E000C3F8002100BF70472DE9F05F80460D462C
:1014F0001646002702F018FA074639462A463346B0
:1015000001F00700C0F1070ABAF1040F02D94FF049
:10151000040A01E0C0F1070AD14600F1040ABAF159
:10152000070F02D24FF0000A01E0A0F1030AD446EF
:101530004FF0010A0AFA09FAAAF1010A0AEA020AB4
:101540000AFA0CFA4FF0010B0BFA0CFBABF1010B92
:101550000BEA030B4AEA0B042146404602F0ECF981
:10156000BDE8F09F00BF00F00702064B19684FF678
:10157000FF031940044B0B4343EA0221014B19605E
:1015800000BF70470CED00E00000FA0570B504469E
:101590000D460CB9012070BD5A48006800F00700E4
:1015A000A8420ED25748006820F00700284355494A
:1015B00008600846006800F00700A84201D001203A
:1015C000E9E7207800F0020002281DD1207800F021
:1015D0000400042805D14C48406840F4E0604A49C2
:1015E0004860207800F00800082805D14648406887
:1015F00040F46050444948604348406820F0F0009F
:10160000A168084340494860207800F0010078B3A1
:101610006068012806D13C48006800F4003090B9A9
:101620000120B8E76068022806D13748006800F05A
:10163000007040B90120AEE73348006800F00200B6
:1016400008B90120A7E73048406820F0030061682E
:1016500008432D494860FFF713F9064609E0FFF7F4
:101660000FF9801B41F28831884202D9032092E7AA
:1016700007E02548406800F00C006168B0EB810F7E
:10168000EDD12048006800F00700A8420ED91D489F
:10169000006820F0070028431A49086008460068DF
:1016A00000F00700A84201D0012074E7207800F084
:1016B0000400042807D11448406820F4E060E16881
:1016C000084311494860207800F00800082808D134
:1016D0000D48406820F46050216940EAC1000A4981
:1016E000486000F03FF808494968C1F30311074A10
:1016F000515CC8400649086006480068FFF794FE40
:10170000002048E70020024000100240F652000886
:101710002C000020240000200148006870470000D1
:101720002C00002000B5FFF7F7FF04494968C1F31A
:101730000221034A515CC84000BD00000010024075
:101740000653000800B5FFF7E7FF04494968C1F3F5
:10175000C221034A515CC84000BD00000010024095
:1017600006530008F0B585B00FF26C0C9CE8E01051
:1017700001A8A0E8E0101CA52D680095002100221A
:10178000002300240020194D696801F00C05F5B113
:10179000042D02D0082D19D101E0154819E001AD42
:1017A000C1F38346AC5D01F4803555B10F4D6D68D2
:1017B000C5F340451DF805200D4D6543B5FBF2F31B
:1017C00002E00C4D04FB05F3184602E000BF084898
:1017D00000BF00BF05B0F0BD0203040506070809FD
:1017E0000A0B0C0D0E0F1010010200000010024039
:1017F00000127A0000093D00F8B504460CB901203A
:10180000F8BD207800F00100002878D0F848406842
:1018100000F00C0004280CD0F548406800F00C00E3
:10182000082811D1F248406800F48030B0F5803FBC
:101830000AD1EF48006800F4003000285FD06068EB
:1018400000285CD10120DBE700BF6068B0F5803F75
:1018500006D1E748006840F48030E549086028E098
:10186000606858B9E248006820F48030E0490860B8
:101870000846006820F4802008601AE06068B0F52F
:10188000A02F0BD1DA48006840F48020D8490860C6
:101890000846006840F4803008600AE0D4480068D8
:1018A00020F48030D24908600846006820F4802087
:1018B000086000BF606888B1FEF7E2FF054606E0F9
:1018C000FEF7DEFF401B642801D9032098E7C848D3
:1018D000006800F400300028F2D010E0FEF7D0FFDE
:1018E000054606E0FEF7CCFF401B642801D9032023
:1018F00086E7BF48006800F400300028F2D1207865
:1019000000F00200022857D1B948406800F00C00EE
:1019100050B1B748406800F00C00082818D1B4480E
:10192000406800F4803098B9B148006800F00200C7
:1019300020B12069012801D0012061E7AC4800688E
:1019400020F0F800616940EAC100A949086033E06D
:101950002069E8B10120A7490860FEF791FF05461C
:1019600006E0FEF78DFF401B022801D9032047E760
:101970009F48006800F002000028F2D09C480068F0
:1019800020F0F800616940EAC1009949086013E05D
:10199000002098490860FEF773FF054606E0FEF751
:1019A0006FFF401B022801D9032029E790480068F7
:1019B00000F002000028F2D1207800F0080008288A
:1019C0002DD1A069B8B101208B490860FEF758FFFE
:1019D000054606E0FEF754FF401B022801D903200C
:1019E0000EE78348406A00F002000028F2D0012090
:1019F00001F0CCFE13E000207F490860FEF740FFB5
:101A0000054606E0FEF73CFF401B022801D90320F3
:101A1000F6E67748406A00F002000028F2D120780C
:101A200000F00400042873D100277148C06900F059
:101A3000805070B900BF6E48C06940F080506C495A
:101A4000C8610846C06900F08050009000BF00BF28
:101A500001276A48006800F48070B0B967480068E0
:101A600040F4807065490860FEF70AFF054606E00D
:101A7000FEF706FF401B642801D90320C0E65F483B
:101A8000006800F480700028F2D000BFE0680128F0
:101A900006D15748006A40F001005549086227E026
:101AA000E06858B95248006A20F0010050490862C5
:101AB0000846006A20F00400086219E0E068052882
:101AC0000BD14B48006A40F00400494908620846BF
:101AD000006A40F0010008620AE04548006A20F010
:101AE0000100434908620846006A20F004000862C9
:101AF00000BFE068A0B1FEF7C3FE054609E0FEF7AF
:101B0000BFFE401B41F28831884202D9032077E6AC
:101B100022E03748006A00F002000028EFD012E00F
:101B2000FEF7AEFE054608E0FEF7AAFE401B41F2B6
:101B30008831884201D9032062E62D48006A00F00E
:101B400002000028F0D1012F05D12948C06920F0FA
:101B500080502749C86100BFE069C8B32448406885
:101B600000F00C00082860D0E069022848D100206D
:101B700020490866FEF784FE054606E0FEF780FE73
:101B8000401B022801D903203AE61948006800F0FA
:101B900000700028F2D1206AB0F5803F07D11448C8
:101BA000406820F40030A168084311494860D4E936
:101BB000080108430E49496821F4741108430C498F
:101BC000486001200B490866FEF75AFE054607E00B
:101BD0003DE0FEF755FE401B022801D903200FE629
:101BE0000348006800F000700028F2D02FE00000E9
:101BF0000010024000004242800442420070004057
:101C0000002014490866FEF73BFE054606E0FEF795
:101C100037FE401B022801D90320F1E50E48006879
:101C200000F000700028F2D111E0E069012800D135
:101C3000E6E50948466806F48031206A814204D10D
:101C400006F47011606A814201D00120D8E50020BD
:101C5000D6E50000000042420010024070B5044684
:101C60002546681EB0F1807F01D301200FE0681E79
:101C70004FF0E02148610F214FF0FF3001F05CFE92
:101C800000204FF0E021886107200861002070BD2E
:101C900010B504460CB9012010BDA06900B100E0E8
:101CA00000BF94F83D0028B9002084F83C0020468D
:101CB00000F028F8242084F83D002068C06820F453
:101CC00000502168C860204601F0AEFD2068006920
:101CD00020F49040216808612068406920F02A00C3
:101CE000216848612068C06840F400502168C860DD
:101CF00000202064202084F83D0084F83E0000206D
:101D0000CAE7000010B586B0044600200290039098
:101D1000049005901A49206888422ED100BF1948C6
:101D2000806940F48040174988610846806900F462
:101D30008040019000BF00BF00BF0846806940F0AE
:101D4000040088610846806900F00400019000BF2B
:101D500000BF48150290022003900320059002A9BD
:101D60000948FEF7D5FB4FF48060029000200390F5
:101D7000049002A90448FEF7CBFB06B010BD00009A
:101D800000380140001002400008014000BFFEE79B
:101D900010B50248FEF77CFD10BD000020060020B3
:101DA000C16AB1F52A0F02D10121C16205E0C16A01
:101DB000B1F12A4F01D10821C1627047F8B505463B
:101DC000002000906C6A94F83D6039480068192141
:101DD000B0FBF1F04FF47A71B0FBF1F0C0EBC00052
:101DE00000EB8000009000BF009820B9206C40F00C
:101DF0002000206409E00098401E009020680068E0
:101E000000F40070B0F5007FEED000BF606B10B141
:101E10000020616B8862A06B10B10020A16B88620A
:101E20002068006820F480602168086000206085D8
:101E3000606B10B10020616B4863A06B10B1002093
:101E4000A16B48632068006820F0010021680860E9
:101E500094F83D0060280AD1202084F83D0000203D
:101E600084F83E0020642046FEF710FD1EE006F0D8
:101E70002800282811D12068006840F0010021685E
:101E800008602068006840F48060216808600020D5
:101E90002063282084F83D0005E0202084F83D00E0
:101EA000002084F83E002046FEF7DFFDF8BD00006C
:101EB0002C0000202DE9F041044694F83D6094F890
:101EC0003E70102F01D0402F07D1222E05D120685F
:101ED000006820F400602168086006F028002828C7
:101EE00005D100202063282084F83D0010E0206800
:101EF000406800F40060B0F5006F07D0602E05D098
:101F0000202084F83D00002084F83E00002020635B
:101F10002068406800F40060B0F5006F40D1206890
:101F2000406820F4006021684860606B90F82100F0
:101F3000012814D04848616B4863606BFEF7FCF9D8
:101F400000285BD02068006820F00100216808604C
:101F5000202084F83D00606B416B88474EE03E488E
:101F6000A16B4863A06BFEF7E7F9002846D0206814
:101F70004069C0F3801030B120680069616A087060
:101F8000606A401C60622068006820F001002168DF
:101F90000860202084F83D00A06B416B88472DE04D
:101FA00094F83D0060281AD1202084F83D000020DC
:101FB000206420684069C0F3801030B12068006957
:101FC000616A0870606A401C60622068006820F0E6
:101FD0000100216808602046FEF758FC0EE02068EA
:101FE0004069C0F3801030B120680069616A0870F0
:101FF000606A401C60622046FEF737FD256C05F0E4
:10200000010058B905F00200022807D005F00400CD
:10201000042803D005F00800082805D1206840688E
:1020200020F4E0602168486094F83D60206C00F086
:10203000040004280ED1282E0CD10848E0620020AC
:102040002063202084F83D00002084F83E002046D4
:10205000FEF7F4FDBDE8F081BD1D00080000FFFFA4
:10206000014608684069C0F38020B0B16FF4806019
:102070000A68506100200863202081F83D0000209C
:1020800081F83E00086C40F00400086400BF0020A6
:1020900081F83C0000BF012070470020FCE770B5CC
:1020A0000446E56A608D042810D12068406820F459
:1020B00080602168486020680069616A0870606A11
:1020C000401C6062608D401E60857AE0608D032850
:1020D0001AD12068406820F4806021684860042D8F
:1020E00007D0022D05D02068006820F480602168A8
:1020F000086020680069616A0870606A401C60625C
:10210000608D401E60855CE0608D02284FD1012DFE
:1021100001D0102D06D12068006820F4806021686D
:10212000086012E0042D01D0022D06D1206800685D
:1021300040F480602168086007E0102D05D0206819
:10214000006840F400702168086020680069616AD6
:102150000870606A401C6062608D401E6085206867
:102160000069616A0870606A401C6062608D401E90
:1021700060852068406820F4407021684860202015
:1021800084F83D0094F83E00402807D1002084F8F0
:102190003E0020632046FEF754FD12E0002084F844
:1021A0003E00122020632046FEF749FD09E020682A
:1021B0000069616A0870606A401C6062608D401E40
:1021C000608570BD70B5044694F83D00222869D141
:1021D000658D032D13D920680069616A0870606AF3
:1021E000401C6062608D401E6085608D032858D160
:1021F0002068406820F480602168486051E0E06A0F
:1022000002284ED0012D01D0002D4AD1204600F0E9
:102210009BFE68BB2068006820F48060216808602D
:102220002068406820F4E060216848602068006908
:10223000616A0870606A401C6062608D401E608543
:10224000202084F83D0094F83E00402807D100206B
:1022500084F83E0020632046FEF7F3FC21E00020D6
:1022600084F83E00122020632046FEF7E8FC18E0C8
:102270002068406820F4E0602168486020680069B8
:10228000616A0870606A401C6062608D401E6085F3
:10229000202084F83D00002084F83E002046FEF710
:1022A000E4FB00BF70BD70B50446E56A94F83D00DC
:1022B000212847D1608D50B1606A0078216808619B
:1022C000606A401C6062608D401E60853AE0082DA7
:1022D00016D0202D14D015F5803F11D0206840680D
:1022E00020F4E0602168486011202063002084F819
:1022F0003E00202084F83D002046FEF7A1FC21E0AE
:102300002068406820F4E060216848602068006828
:1023100040F400702168086000202063202084F8C9
:102320003D0094F83E00402806D1002084F83E008D
:102330002046FEF787FC05E0002084F83E0020469A
:10234000FEF77EFC70BD2DE9F041044694F83D5047
:1023500094F83E70E66A208DB0BB212D3CD1082E4A
:1023600016D0202E14D016F5803F11D0206840687A
:1023700020F4E0602168486011202063002084F888
:102380003E00202084F83D002046FEF759FC44E042
:102390002068406820F4E060216848602068006898
:1023A00040F400702168086000202063202084F839
:1023B0003D0094F83E00402807D1002084F83E00FC
:1023C0002046FEF73FFC28E006E0002084F83E00AF
:1023D0002046FEF735FC20E0212D03D0402F1CD1F4
:1023E000222D1AD1608D30B92068406820F48060B9
:1023F0002168486011E094F83E00402803D120464F
:1024000000F0B1F909E0606A007821680861606A4B
:10241000401C6062608D401E6085BDE8F081416CAB
:10242000C9B202681161416B11B1416B896A21B96E
:10243000816B41B1816B896A29B10168496841F4B6
:10244000006102685160704738B590F83E20C16A5B
:10245000036B90F83D40222C73D1046D64B9402A7F
:102460000AD100BF002400940468646900940468E1
:10247000A469009400BF26E1046DC4B90469B4F5F1
:10248000404F14D100BF0024009404686469009494
:102490000468A469009400BF00BF0468246844F481
:1024A000807405682C60046D641C04650BE1448D28
:1024B0008CB900BF00240094046864690094046827
:1024C000A469009400BF00BF0468246844F4007449
:1024D00005682C60E9E0448D012C72D111F5803F34
:1024E00030D10468246824F4806405682C60046892
:1024F000646804F40064B4F5006F10D104682468C3
:1025000024F4806405682C6000BF002400940468F3
:10251000646900940468A469009400BFC5E000BF2A
:10252000002400940468646900940468A469009419
:1025300000BF00BF0468246844F4007405682C6080
:10254000B3E0B5E0082923D0202921D0122B01D1F6
:1025500001291DD104290AD0022908D0102906D04A
:102560000468246824F4806405682C6005E004682D
:10257000246844F4806405682C6000BF0024009443
:102580000468646900940468A469009400BF8CE046
:102590000468246824F4806405682C6000BF00246B
:1025A00000940468646900940468A469009400BFFE
:1025B00000BF0468246844F4007405682C6074E06B
:1025C000FFE7448D022C47D104291BD0022919D0E2
:1025D000102917D00468246844F4006405682C604E
:1025E00000BF002400940468646900940468A4692E
:1025F000009400BF00BF0468246824F48064056868
:102600002C6010E00468246844F4806405682C6041
:1026100000BF002400940468646900940468A469FD
:10262000009400BF00BF0468646804F40064B4F55B
:10263000006F3AD111F5803F07D0012905D0082954
:1026400003D0102901D020292FD10468646844F4F4
:10265000805405686C6028E00468246844F4806451
:1026600005682C600468646804F40064B4F5006FC5
:1026700010D111F5803F07D0012905D0082903D0DA
:10268000102901D0202905D10468646844F48054DD
:1026900005686C6000BF00240094046864690094BD
:1026A0000468A469009400BF00BF002404650AE028
:1026B00000BF002400940468646900940468A4695D
:1026C000009400BF00BF38BD90F83E1040290ED1E5
:1026D000016D29B9416C01F0FE010268116141E010
:1026E000416CC9B241F00101026811613AE001692F
:1026F000B1F5804F20D190F83D10212905D1416CD2
:1027000001F0FE010268116105E0416CC9B241F0BF
:10271000010102681161416B11B1416B896A21B9F4
:10272000816BF9B1816B896AE1B10168496841F453
:1027300000610268516015E0016D41B9416C01F41E
:102740004071F02242EAE111026811610AE0016D74
:10275000012907D1416C01F44071F12242EAE111F3
:1027600002681161704770B5044694F83D50206DC1
:1027700098B9E06C012807D1A06CC0B2216808614B
:10278000206D801C20654CE0A06CC0F30720216800
:102790000861206D401C206543E0206D012807D1B1
:1027A000A06CC0B221680861206D401C206538E033
:1027B000206D022835D1222D09D12068006840F40F
:1027C000807021680860206D401C206529E0608DC4
:1027D00060B1212D0AD1606A007821680861606AC1
:1027E000401C6062608D401E60851AE0608DC0B93B
:1027F000212D16D12068406820F4E06021684860EF
:102800002068006840F400702168086000202063A0
:10281000202084F83D00002084F83E002046FEF78A
:1028200011FA70BD2DE9F84304460F461546994646
:10283000DDE908862068006840F48060216808604F
:102840002068006840F480702168086043460022D8
:102850004FF001112046009600F090FA60B1206818
:10286000006800F48070B0F5807F02D14FF40070F2
:1028700020640320BDE8F88307F0FE0021680861AA
:10288000334642463E49204600F0BBFA08B10120DB
:10289000F0E700BF002000902068406900902068A9
:1028A0008069009000BF00BF32464146204600F0DC
:1028B00073FB50B1206C042805D12068006840F4F7
:1028C0000070216808600120D4E7B9F1010F03D13D
:1028D000E8B22168086117E0C5F3072021680861A4
:1028E00032464146204600F057FB50B1206C042888
:1028F00005D12068006840F400702168086001205C
:10290000B8E7E8B22168086132464146204600F047
:1029100043FB50B1206C042805D12068006840F4C6
:102920000070216808600120A4E72068006840F476
:10293000807021680860434600224FF00111204654
:10294000009600F01BFA58B12068006800F480700F
:10295000B0F5807F02D14FF400702064032089E736
:10296000F8B240F00100216808613346424604494C
:10297000204600F046FA08B101207BE7002079E705
:10298000020001002DE9F8430446884615469946A1
:10299000DDE908672068006840F4807021680860FD
:1029A000334600224FF001112046009700F0E6F96F
:1029B00060B12068006800F48070B0F5807F02D1BB
:1029C0004FF4007020640320BDE8F88308F0FE0097
:1029D000216808613B4632462149204600F011FA41
:1029E00008B10120F0E700BF002000902068406996
:1029F000009020688069009000BF00BF3A463146D1
:102A0000204600F0C9FA50B1206C042805D1206896
:102A1000006840F40070216808600120D4E7B9F133
:102A2000010F03D1E8B22168086117E0C5F3072060
:102A3000216808613A463146204600F0ADFA50B1AF
:102A4000206C042805D12068006840F400702168DB
:102A500008600120B8E7E8B2216808610020B3E708
:102A600002000100418D49B101680969426A117093
:102A7000416A491C4162418D491E4185704770B5CC
:102A8000044694F83D50608DD8B120680069616AB1
:102A90000870606A401C6062608D401E6085608DB9
:102AA00078B92A2D0DD12068406820F48060216813
:102AB000486022202063282084F83D002046FEF74D
:102AC00091FC70BD418D49B1416A0978026811617C
:102AD000416A491C4162418D491E4185704770B56C
:102AE000044694F83D50608DD8B1606A0078216842
:102AF0000861606A401C6062608D401E6085608D68
:102B000078B9292D0DD12068406820F480602168B3
:102B1000486021202063282084F83D002046FEF7ED
:102B200062FC70BDF8B504460D46002794F83D00E0
:102B300000F0280028281CD12068406820F480601C
:102B400021684860C5F3800000B90127C5F3C010B3
:102B500010B9A08986B201E0208B86B200BF0020A8
:102B600084F83C0000BF324639462046FDF78FFE10
:102B70000FE000BF002000902068406900902068AE
:102B80008069009000BF00BF00BF002084F83C00B7
:102B900000BFF8BD38B5044694F83D502068406841
:102BA00020F4E0602168486000BF002000902068A9
:102BB000406900902068006840F0010021680860CA
:102BC00000BF00BF2068006820F4806021680860B2
:102BD0002068406800F40060B0F5006F42D1222DFB
:102BE00001D02A2D1FD1A06B006840686085608DE0
:102BF00018B1206C40F0040020642068406820F484
:102C0000006021684860A06BFDF76AFC012829D0AC
:102C10004148A16B4863A06BFDF78EFB10B3A06B1E
:102C2000416B88471EE0606B006840686085608D7E
:102C300018B1206C40F0040020642068406820F443
:102C4000006021684860606BFDF74AFC012809D0EC
:102C50003148616B4863606BFDF76EFB10B1606BD0
:102C6000416B8847608D18B320684069C0F38000CD
:102C700048B120680069616A0870606A401C60623F
:102C8000608D401E608520684069C0F3801048B1A7
:102C900020680069616A0870606A401C6062608D2B
:102CA000401E6085608D18B1206C40F004002064E7
:102CB000206C18B12046FFF7FDF82BE02A2D07D134
:102CC00000202063282084F83D002046FEF78AFB80
:102CD00094F83D0028280DD11048E06200202063C0
:102CE000202084F83D00002084F83E002046FDF7B7
:102CF000A5FF0FE0206B222801D0222D0AD1002051
:102D00002063202084F83D00002084F83E00204607
:102D1000FEF768FB38BD0000BD1D00080000FFFF86
:102D200070B504460D46164620E02046FFF798F998
:102D300008B1012070BD681CC0B1FDF7A1FD801B6A
:102D4000A84200D895B900202063202084F83D00D7
:102D5000002084F83E00206C40F02000206400BF7A
:102D6000002084F83C0000BF0120E3E720684069B0
:102D7000C0F380000028D8D00020DBE72DE9F04127
:102D800004460D4617461E46DDF818801CE0701CF0
:102D9000D0B1FDF775FDA0EB0800B04200D89EB998
:102DA00000202063202084F83D00002084F83E00AD
:102DB000206C40F02000206400BF002084F83C001C
:102DC00000BF0120BDE8F081C5F3074001280AD10A
:102DD00020684069A9B20840A9B2884201D1012007
:102DE0000BE0002009E020688069A9B20840A9B280
:102DF000884201D1012000E00020B842C7D0002065
:102E0000E0E72DE9F04104460D4616461F463DE039
:102E100020684069C0F38020E8B12068006840F471
:102E20000070216808606FF48060216848610020AC
:102E30002063202084F83D00002084F83E00206CB0
:102E400040F00400206400BF002084F83C0000BF74
:102E50000120BDE8F081701CC0B1FDF711FDC01B61
:102E6000B04200D896B900202063202084F83D00AD
:102E7000002084F83E00206C40F02000206400BF59
:102E8000002084F83C0000BF0120E2E7C5F30740C2
:102E900001280AD120684069A9B20840A9B2884235
:102EA00001D101200BE0002009E020688069A9B26F
:102EB0000840A9B2884201D1012000E0002000288A
:102EC000A6D00020C5E770B504460D46164632E090
:102ED00020684069C0F30010A0B16FF010002168B5
:102EE000486100202063202084F83D00002084F801
:102EF0003E00206C206400BF002084F83C0000BF2E
:102F0000012070BDFDF7BCFC801BA84200D895B91C
:102F100000202063202084F83D00002084F83E003B
:102F2000206C40F02000206400BF002084F83C00AA
:102F300000BF0120E5E720684069C0F38010002849
:102F4000C6D00020DDE7000008B501460020009053
:102F5000104800681922B0FBF2F04FF47A72B0FB0F
:102F6000F2F000EB8000009000BF0098401E00903F
:102F7000009828B9086C40F020000864012008BDC2
:102F80000868006800F40070B0F5007FEDD0002004
:102F9000F5E700002C00002070B504460D461646EB
:102FA00020E02046FFF75CF808B1012070BD681CE6
:102FB000C0B1FDF765FC801BA84200D895B9002080
:102FC0002063202084F83D00002084F83E00206C1F
:102FD00040F02000206400BF002084F83C0000BFC7
:102FE0000120E3E720684069C0F3C0100028D8D072
:102FF0000020DBE700B585B000200190029003902F
:10300000049000BF2148806940F008001F49886192
:103010000846806900F00800009000BF00BF00BFB4
:103020000846806940F0040088610846806900F025
:103030000400009000BF00BF00BF0846806940F058
:10304000400088610846806900F04000009000BFA1
:1030500000BF012220210E48FDF70CFC202001902A
:1030600001200290002003900220049001A908484A
:10307000FDF74EFA0220019000200290039001A972
:103080000448FDF745FA05B000BD000000100240FD
:10309000000C01400018014010B50B480B490860B6
:1030A0000B484860002109488160C1604FF48041AD
:1030B0000161002141618161C1610162FDF7D6FCBE
:1030C00008B1FDF736F910BD00540040CC050020D2
:1030D000801A060010B50B480B4908600B48486081
:1030E000002109488160C1604FF4804101610021E5
:1030F00041618161C1610162FDF7B8FC08B1FDF772
:1031000018F910BD0058004020060020801A060063
:1031100010B50B480B4908604FF4E13048600021BE
:1031200008488160C16001610C2141610021816119
:10313000C161FEF7ADFD08B1FDF7FBF810BD000061
:10314000003801407406002000BFFEE700BFFEE724
:1031500070B500240FE02146002000F031F9002571
:1031600005E00121002000F065F9681CC5B2802D42
:10317000F7DB601CC4B2082CEDDB70BD10B590B05D
:103180000021AE2000F056F90021084600F052F967
:103190000021102000F04EF90021402000F04AF9F3
:1031A0000021B02000F046F90021812000F042F912
:1031B0000021F02000F03EF90021A12000F03AF9B2
:1031C0000021A62000F036F90021A82000F032F9F5
:1031D00000213F2000F02EF90021C82000F02AF93C
:1031E0000021D32000F026F90021084600F022F942
:1031F0000021D52000F01EF90021802000F01AF9EE
:103200000021D92000F016F90021F12000F012F978
:103210000021DA2000F00EF90021122000F00AF956
:103220000021DB2000F006F90021302000F002F937
:1032300000218D2000F0FEF80021142000F0FAF8A3
:103240000021AF2000F0F6F8FFF782FF012000F028
:10325000AFF93DA30FCB0CAC0FC404213A2000F012
:10326000AFF8002406E00CA9085D012100F0E2F8A7
:10327000601CC4B20D2CF6DB37A103C9CDE90A01ED
:103280000421792000F09CF8002406E00AA9085DDA
:10329000012100F0CFF8601CC4B2062CF6DB24221A
:1032A0002FA101A8FCF7B3FF0221492000F088F804
:1032B000002406E001A9085D012100F0BBF8601CB4
:1032C000C4B20B2CF6DB0321492000F079F800246E
:1032D00008E004F10B0101AA505C012100F0AAF8FA
:1032E000601CC4B20B2CF4DB0421492000F068F808
:1032F000002408E004F1160101AA505C012100F04D
:1033000099F8601CC4B20B2CF4DB1EA20021084605
:1033100000F060F821A20121002000F05BF821A25A
:103320000121212000F056F820A201213C2000F0CC
:1033300051F81FA20121452000F04CF81F48FDF76D
:1033400081FC10B010BD00003E2838003E0A0E007F
:103350003E021C023E0000006333180C666300004E
:10336000384444448800FC44444438E1121212E1D9
:103370000023101090600708080807000C0A0908CD
:103380000800000043616C6C5F4E6F775F596561A8
:10339000682053747564696F0000000048656172AD
:1033A00074000000526174650000000026000000F7
:1033B0004F78696D65747279000000002006002066
:1033C000024A1070024A1170704700001800002075
:1033D000190000202DE9F04105460F4614464FF034
:1033E000000800261EE02078203800F0FF087F2D1E
:1033F00002DD0025781CC7B239462846FFF7E0FFFA
:1034000000260AE008EB4801094A02EB4101885D09
:10341000012100F00FF8701CC6B2062EF2DBA81DC9
:10342000C5B2641C20780028DDD1BDE8F081000021
:103430007E50000813B584B00C4664B932200121D7
:1034400004AA0B46CDE900210290002278210A4807
:10345000FDF726FE0EE09DF810000849084A127894
:1034600001EBC211074A1278885406480078401CC4
:103470000449087006B010BD20060020CA010020D3
:1034800019000020180000202DE9F14F84B043A05E
:1034900000680290049801F0CBFA0746404A414B7D
:1034A00001F09CF8CDE9000101F02EF80A30C6B217
:1034B000172E00DD1726002E00DC00263A48017882
:1034C000304600F091FB814637480178304600F0E5
:1034D00007FE0546A94502D1681C00F0FF0900243B
:1034E00020E0A5EBC400002809D402A8005DA5EBEC
:1034F000C401084102A9095D084002A90855601CE1
:10350000C9EBC00000280BD402A8015D601CC9EB08
:10351000C00001FA00F002A9095D084002A908559F
:10352000601CC4B2032CDCDB002425E0C4F10700DE
:10353000C1B21E480078FFF743FF02A9085D0121D0
:10354000FFF778FF19480078C0F17F0000F0FF0B0B
:10355000BBF1030F01DD4FF0030B4FF0000A07E052
:1035600001210020FFF766FF0AF1010000F0FF0AC9
:10357000DA45F5DB601CC4B2032CD7DB0A480670C1
:103580000A480078401C09490870084600787F28DE
:1035900001DD0020087005B0BDE8F08FFFFFFF00DF
:1035A000B81E85EB51B8BE3F1C0000201B00002058
:1035B00070B5054602210120FFF702FF002D2DD036
:1035C000002406E02949085D0121FFF733FF601C54
:1035D000C4B2152CF6DB03210120FFF7F1FE002415
:1035E00008E004F11501214A505C0121FFF722FF98
:1035F000601CC4B2152CF4DB04210120FFF7E0FEAF
:10360000002408E004F12A01184A505C0121FFF768
:1036100011FF601CC4B2152CF4DB25E0002405E08A
:1036200001210020FFF706FF601CC4B2152CF7DB58
:1036300003210120FFF7C4FE002405E00121002042
:10364000FFF7F8FE601CC4B2152CF7DB0421012043
:10365000FFF7B6FE002405E001210020FFF7EAFE97
:10366000601CC4B2152CF7DB70BD0000A652000828
:103670002DE9F04707468846414810F80860414860
:1036800010F8079002214846FFF79AFE00241DE03B
:103690000025012C05DC06F0200088B145F0F80576
:1036A0000EE0022C07DB072C05DC06F0010038B128
:1036B00045F0060504E006F0020008B145F0F80503
:1036C00001212846FFF7B6FE601CC4B20A2CDFDBDE
:1036D00003214846FFF774FE002427E00025012C53
:1036E0000ADC06F0200008B145F0030506F01000E2
:1036F000B0B145F0F00513E0022C07DB072C05DC28
:1037000006F0400060B145F00C0509E006F002004B
:1037100008B145F0030506F0040008B145F0F005D6
:1037200001212846FFF786FE601CC4B20A2CD5DBB7
:1037300004214846FFF744FE00241DE00025012C2B
:1037400005DC06F0100088B145F007050EE0022CFC
:1037500007DB072C05DC06F0080038B145F018053A
:1037600004E006F0040008B145F0070501212846F1
:10377000FFF760FE601CC4B20A2CDFDBBDE8F087F7
:10378000E5520008F05200087047000008B50849EB
:103790000968C9084FF47A72B1FBF2F14143009114
:1037A00000BF00BF00994A1E00920029F9D108BD50
:1037B0002C000020704710B5FDF716FE10BD00B5B7
:1037C0008FB0282105A8FCF754FD14216846FCF7AA
:1037D00050FD012005900004069000200790012074
:1037E000099002200C90C1030D914FF4E0110E914D
:1037F00005A8FEF701F808B1FCF79BFD0F2000902B
:1038000002200190002002904FF48060039000207D
:10381000049002216846FDF7B9FE08B1FCF789FD66
:103820000FB000BD7047000070B5044621680969FB
:1038300021F44051E2681143226811612269A168B4
:103840001143626941EA02052168C96841F20C62CC
:10385000914329432268D1602168496921F440716C
:10386000A2691143226851612D4A2168914202D117
:10387000FDF768FF01E0FDF755FF00EBC00101EB2C
:10388000001162689200B1FBF2F100EBC00202EBA2
:10389000001263689B00B2FBF3F26423B2FBF3F205
:1038A00002EBC20303EB0212A1EB8201322202EB14
:1038B00001116422B1FBF2F101F0F00100EBC00252
:1038C00002EB001263689B00B2FBF3F26423B2FBCD
:1038D000F3F201EB021200EBC00101EB001163688F
:1038E0009B00B1FBF3F100EBC00303EB0013666830
:1038F000B600B3FBF6F36426B3FBF6F303EBC306A3
:1039000006EB0313A1EB8301322303EB01116423C4
:10391000B1FBF3F101F00F0111442268916070BD19
:103920000038014000BFFEE702480068C0F30220F3
:10393000704700000CED00E010B5002804DB0A071A
:10394000130E054A135406E00A07140E034A00F04A
:103950000F031B1FD45410BD00E400E018ED00E07D
:1039600000BF704703B531200EE0411E0A4A52F8ED
:10397000311042F83010411E02EBC101496802EBE0
:10398000C0025160411EC8B20028EEDC024A009914
:103990001160019951600CBD300000202DE9F0410B
:1039A00005460E4617469C46DFF8AC80D8F8001056
:1039B000D8F80020D8F80430D8F80440002033E0CC
:1039C000DFF8948058F83080884503D9DFF8888084
:1039D00058F83010DFF8808058F83080904503D2D6
:1039E000DFF8748058F83020DFF86C8008EBC008EE
:1039F000D8F80480984505D9DFF85C8008EBC0084A
:103A0000D8F80430DFF8508008EBC008D8F80480FC
:103A1000A04505D2DFF8408008EBC008D8F8044084
:103A200000F1010808F0FF003228C9DBA1EB020811
:103A3000A5F8008001EB02084FEA5808C6F800809C
:103A4000A3EB0408A7F8008003EB04084FEA58082A
:103A5000CCF80080BDE8F0813000002010B50023D4
:103A6000002200210AE00B4C54F831402344094C59
:103A700004EBC104646822444C1CE1B20729F2DB68
:103A800004681C44E408046044681444E408446086
:103A900010BD000030000020FDF7B2FCFFF78FFEE4
:103AA000FFF7A8FAFFF7F8FAFFF732FBFFF712FB70
:103AB000C820FCF719FDFFF761FB00F071FA8EE0FA
:103AC00002214748FCF7C4FE0028F8D120214548D0
:103AD000FCF7C6FE00F090F800F000FA044600F093
:103AE000F7F905464FF47A7095FBF0F100FB1150A1
:103AF000642190FBF1F000280EDD4FF47A7095FB05
:103B0000F0F100FB1150642190FBF1F0C7B239468F
:103B10000020FFF7ADFD03E00A210020FFF7A8FD1C
:103B2000642095FBF0F100FB11500A2190FBF1F0AD
:103B3000C7B239460120FFF79BFD0A2095FBF0F143
:103B400000FB1150C7B239460220FFF791FD4FF438
:103B50007A7094FBF0F100FB1140642190FBF1F0CE
:103B600000280EDD4FF47A7094FBF0F100FB114059
:103B7000642190FBF1F0C7B239460320FFF778FDCE
:103B800003E00A210320FFF773FD642094FBF0F1AA
:103B900000FB11400A2190FBF1F0C7B23946042026
:103BA000FFF766FD0A2094FBF0F100FB1140C7B25D
:103BB00039460520FFF75CFD00F02CF9064630463B
:103BC00001F0B2F80746FFF75FFC322E03DD00205C
:103BD000FFF7EEFC02E00120FFF7EAFC00BF6FE711
:103BE00000180140000C014002468A4201DD1046E7
:103BF00070470846FCE700002DE9F04F8DB000F05B
:103C000099F98146494602A800F00AF90024D2E059
:103C100002A800EBC400406849F64041884207D240
:103C20000020684908706849087068490880C0E049
:103C300002A800EBC402D2E90001FFF793FE644B37
:103C4000644A65496548FFF7A9FE02A901EBC40073
:103C5000FFF704FF5E48006801F07EF882465D4889
:103C6000008801F079F88346514600F07BFF074653
:103C70005948006801F070F882465848008801F001
:103C80006BF88346514600F06DFF8046394600F0E0
:103C900069FF0646304600F0CBFE0746504A514BBE
:103CA00000F09AFD16D8304600F0C2FE07464E4A94
:103CB0004E4B00F057FC0DD231464D4801F094F8C0
:103CC00080464C4901F05CF9074601F00DF83E4989
:103CD00008701FE0304600F0ABFE0746424A434BF7
:103CE00000F07AFD16D84FF07E51304601F048F8CA
:103CF00010D23146404801F077F8019000F098FE6C
:103D000007463E4A3E4B00F09DFD824600F0FCFB1C
:103D10002D49087002A800EBC40080883949098841
:103D2000081A00B2294908800846B0F90000322874
:103D300033DD354800780C282FDD092505E0601EAD
:103D40003249085C0855681EC5B2002DF7DC2E48C4
:103D500000782E4908704FF0000A002504E02B4837
:103D6000005D8244681CC5B20A2DF8DB504600F0A5
:103D7000F3FF834600F05CFE02460B46CDE90001EE
:103D80000020234900F068FA074600F0BDFB0D490A
:103D9000087000201C49087000BF02A800EBC40096
:103DA00040681849086018480078401C1649087097
:103DB00000BF601CC4B24C45FFF62AAF0DB0BDE891
:103DC000F08F000000000020010000201000002003
:103DD0000C00002008000020040000200200002049
:103DE0000AD7A3703D0AD73F1F85EB51B81EE53FA8
:103DF0000000A0410000D6420000584214AE47E146
:103E00007A3460401400002012000020C00100201D
:103E1000004CDD400148B0F9000070471000002060
:103E200070B58CB006460D46052D00DD052519211F
:103E300005EB4500400004AA0123CDE900200291D2
:103E40000722AF212148FCF779FF00243AE004EB78
:103E5000440004A911F81000000404EB44010122FD
:103E600002EB410104AA515C40EA012004EB440149
:103E7000022202EB410104AA515C0843C0F3110085
:103E800046F8340004EB4400032101EB400004A990
:103E9000085C000404EB4401042202EB410104AA83
:103EA000515C40EA012004EB4401052202EB410190
:103EB00004AA515C0843C0F3110006EBC40148603A
:103EC000601CC4B2AC42C2DB0CB070BDCC0500209B
:103ED0000148007870470000000000200148007889
:103EE00070470000010000201FB50024002003904F
:103EF0000A20012103AA0B46CDE9002102900022ED
:103F0000AF210B48FCF71AFF9DF80C400A20012155
:103F100003AA0B46CDE9002102900A46AF210448CE
:103F2000FCF70CFF9DF80C1044EA010004B010BD32
:103F3000CC05002000B585B00020049003900A2035
:103F4000012104AA0B46CDE9002102900422AF21F1
:103F50001248FCF7F3FE0A20012103AA0B46CDE923
:103F6000002102900622AF210C48FCF7E7FE9DF8E5
:103F700010009DF80C10401A08D59DF810009DF80F
:103F80000C10401A2030C0B205B000BD9DF81000E2
:103F90009DF80C10401AC0B2F6E70000CC050020D6
:103FA0001FB500200390402003900A20012103AA9E
:103FB0000B46CDE9002102900922AE214748FDF7CA
:103FC0006FF800BF0A20012103AA0B46CDE90021AA
:103FD00002900922AF214148FCF7B0FE9DF80C0089
:103FE00000F040000028EDD1402003900A2001217C
:103FF00003AA0B46CDE9002102900222AE213748E8
:10400000FDF74EF8632003900A20012103AA0B4616
:10401000CDE9002102900246AE213048FDF740F87C
:10402000472003900A20012103AA0B46CDE9002175
:1040300002900C22AE212948FDF732F80A20012116
:1040400003AA0B46CDE9002102900D22AE212348A0
:10405000FDF726F80A20012103AA0B46CDE900212D
:1040600002901022AE211D48FDF71AF8002003909F
:104070000A20012103AA0B46CDE900210290042267
:10408000AE211648FDF70CF80A20012103AA0B46C1
:10409000CDE9002102900522AE211048FDF700F87D
:1040A0000A20012103AA0B46CDE900210290062235
:1040B000AE210A48FCF7F4FFFFF716FF0320039038
:1040C0000A20012103AA0B46CDE900210290092212
:1040D000AE210248FCF7E4FF1FBD0000CC05002024
:1040E00002468A4201DA104670470846FCE70000A3
:1040F00010B591EA030F48BF83F0004300F1B68387
:10410000841A71EB030C05D2121943EB0C03001B4C
:1041100061EB0C01DFF824E14FEA1154A4EB135CCE
:104120001EEA430F18BF9EEA445F73D023EA0E03D2
:10413000DCF1200E21EA045143F4801332D322FA39
:104140000CFE10EB0E0023FA0CFE41EB0E01CCF13D
:10415000200E03FA0EFE10EB0E0051F10001B1F536
:10416000801FCCF1200E32D201EB045112FA0EF274
:10417000BDE8104058BF7047401C38BF5FEA42029C
:1041800018BF7047002814BF20F0010041F1000162
:104190004FEA410313F5001F38BF7047A1F1C0413A
:1041A00000F014BB012A43EB0302ACF1200CDCF15C
:1041B0001F0E32BF4FF0000E23FA0CF310EB03007A
:1041C00041EB0451B4EB115FD0D0A1EB045101F5E8
:1041D000801149085FEA300001EB04510ED350F121
:1041E000000038BF12FA0EFE08D1BDE81040C9E742
:1041F000401C38BF5FEA4202CAD1C3E7BDE81040A5
:104200004FEA410313F5001F38BF7047A1F1C041C9
:1042100000F0DCBA9EEA445F08D011EA5E0FBDE808
:10422000104004BF01F0004100207047BDE810407D
:1042300070B500F07DFA00BF64FBBE3E0000E0FFF9
:10424000491058BFC1F140415B1058BFC3F1404312
:104250008B42EFF3008070472DE9C04130B4DFF8A6
:10426000A0C23CEA111418BF3CEA131400F0EC8021
:1042700081EA03051CEA111444EAD57418BF1CEA4C
:10428000131500F0C780A4EB05044FF0004545EA84
:10429000C12145EAC32341EA505143EA525304F194
:1042A0007F74994204F500344FEAC0204FEAC222DD
:1042B00008BF904200F09C804FEA13650FF2401651
:1042C000765D4FEA134506FB05F7C7F1807706FBDD
:1042D00007F74FEAD737A7FB03687642C8F580385F
:1042E000A7FB06CE38BFA8F1010807FB08E64FF090
:1042F000000EA6FB028CE6FB03CEDCF1000CCEF137
:10430000004E38BFAEF1010EA6FB0C584FF000076F
:104310004FF00005E6FB0E87A1FB08C6A0FB07CE09
:1043200016EB0E0645F10005E1FB076515F1E04EC1
:104330007EBFA4F580345FEA46066D4116F1800722
:1043400045F100054FEA17274FEA066647EA056779
:10435000A6F1DE46B6F1805F4FEA15251FD9384633
:1043600024F0010C05EBC471BCF1FE6F01EB0C11E4
:1043700002D8F0BCBDE8008124425CBF01F5801E7C
:104380009EEAC47F02D4F0BCBDE80081244238D448
:10439000F0BCA1F1C041BDE8004100F017BA4FEAFE
:1043A000D22242EA43524FEAD323A7FB02864FEAC6
:1043B000D02040EA415007FB03661EEA0E0F4FEA89
:1043C000D12105FB026658BFA6EB0056B6EB00569E
:1043D0004FEA520E4EEAC37E18EB0E0E56EB530E0A
:1043E000BDD518EB02085E417F1C55F10005B6E70C
:1043F0004FF480154FF000074FF000064FF0000813
:10440000ADE7F0BC4FF0000001F1C04101F0004108
:10441000BDE8008111EA0C1F0CEA131500D00CE076
:1044200013EA0C1F00F025804FF00000F0BC81EA79
:10443000030101F00041BDE80081F0BCBDE800418E
:1044400081EA030100F0C2B9F0BCBDE8004170B5DB
:1044500000F06EF9097EFC3E00F007B881EA030126
:104460004FF0000001F00041704781EA030100F0C5
:10447000ADB9F0BCBDE800414FF0000021497047E4
:10448000FFFDFBF9F7F5F4F2F0EEEDEBE9E8E6E419
:10449000E3E1E0DEDDDBDAD8D7D5D4D3D1D0CFCDA0
:1044A000CCCBCAC8C7C6C5C4C2C1C0BFBEBDBCBBD9
:1044B000BAB9B8B7B6B5B4B3B2B1B0AFAEADACABD4
:1044C000AAA9A8A8A7A6A5A4A3A3A2A1A09F9F9EAE
:1044D0009D9C9C9B9A999998979796959594939360
:1044E000929191908F8F8E8E8D8C8C8B8B8A8989F7
:1044F000888887878685858484838382828181807A
:104500000000FF070000F87F4FEA1153A3F5806316
:10451000D3F11E03A8BFD3F1200C08DB4FF00042FB
:1045200042EAC12252EA505232FA03F0704709427D
:104530000BD4102BC4BF0020704703F5787CBCF16E
:10454000FF3F05D04FF0FF3070474FF0000070473D
:1045500070B500F0EDF800BF49922480002070474C
:10456000F0E7000051EA030C17D41CF5801F58BF78
:10457000BCF5801F00F10680994218BF704708BF44
:104580009042704707D711F5801F58BF13F5801F61
:1045900019D499427047894270471CF5801F08D58D
:1045A000BCF5801FF7D58B4218BF704708BF824209
:1045B00070474FF4001C1CEB410F38BF1CEB430F3E
:1045C00001D28B42704770B500F0B2F892244900D6
:1045D0004FF000514FF08053FFF732BEDFF848C173
:1045E00070B51CEA111E1EBF1CEA13159EEA0C0FC3
:1045F00095EA0C0F00F06F8081EA030423EA4C1364
:104600004EEAD47E21EA4C1141F4801143F4801328
:10461000AE44A1FB024CA0FB0365AEF17F7E3619D0
:1046200055EB0C05A1FB034C4CF10003A0FB021C55
:1046300016EB0C06654153F10003094218BF46F022
:10464000010613F4007F0BD14FEA03314FEA053026
:10465000340341EA155140EA16506FF003020AE0B4
:104660004FEAC3214FEAC520F40241EA555140EA1E
:1046700056506FF0020202EB2E4201EB025585EA22
:10468000CE710AD05FEA440C18BF24F0004450F108
:10469000000041F1000120EAD47040F2FE7C624546
:1046A00000D270BDA84214BF4FF080444FF0404488
:1046B000002E08BF0024BEF1806FA8BFA1F1C04149
:1046C000BDE8704080F282804FF0000001F1C041EF
:1046D00001F0004170479EEA0C0F0CEA131518BF59
:1046E00095EA0C0F06D04FF0000081EA030E0EF0A1
:1046F000004170BD00F01CF88900013E00F007B8D1
:1047000000F009B84FEA430C5FEA5C5C08D081EA2C
:10471000030100F05BB84FEA410C5FEA5C5CF6D144
:104720004FF00000014970470000FF070000F87FCC
:104730000EF1020E2EF0030E5EF8046B364205D425
:10474000012A43EB030515F5001F12D8012841EBA0
:10475000010C1CF5001F0CD80ED14FEAD17C15F5C9
:10476000001F0CEB4C0C0CF1020C08BF4CEBD37C83
:1047700004E04FF0080C01E04FEAD37C0CEB4C0551
:1047800026FA05F606F00706B6F1040C06D20EEB83
:10479000860CBDE870404CF0010C6047DFE80CF07F
:1047A000090B02024FF000414FF00000A1F500217B
:1047B00070BD19461046012851EB010418BFD4F50D
:1047C000001484BF002001F0004170BD0808A0F56E
:1047D00000114FEA3101704753EA010C17D41CF560
:1047E000801F58BFBCF5801F00F106808B4218BFA8
:1047F000704708BF8242704707D713F5801F58BF24
:1048000011F5801F19D48B4270479B4270471CF5ED
:10481000801F08D5BCF5801FF7D5994218BF704797
:1048200008BF904270474FF4001C1CEB430F38BF89
:104830001CEB410F01D2994270470FB40CBC03BC72
:10484000FFF7C1BE91EA030F10B581F000413FF5BB
:1048500057AC83F0004300F009B8000010B591EAAE
:10486000030F48BF83F000433FF54AAC841A71EB55
:10487000030C07D212198CF0004C43EB0C03001B05
:1048800061EB0C01DFF8A4E14FEA1154A4EB135CD7
:104890001EEA430F18BF9EEA445F00F0B08023EA8F
:1048A0006E03524221EA0451C3EB6E0338BF5B1E14
:1048B000DCF1200E25D322FA0CFE10EB0E0043FA99
:1048C0000CFE41EB0E01CCF1200E03FA0EFE10EBB4
:1048D0000E0051F10001CCF1200E29D412FA0EF293
:1048E00001EB0451BDE8104058BF7047401C1CBF8D
:1048F000B2F1004F704700280CBF491C20F00100A6
:10490000704712EB020E43EB030218BF4FF0010E8B
:104910004EEA4202ACF1200CDCF11E0E54D943FAEF
:104920000CFE10EB0E0051F1FF31CCF11E0ED5D56F
:104930000EF1010E12FA0EFE404141EB010101EBB6
:10494000445C5FEA5C5C10D910EBDE7001EB045153
:1049500038BFBEF1004FBDE8104018BF70470028B7
:104960000CBF491C20F00100704730D24FEAD42C14
:1049700011F5001124F400641BD0B1FA81F20B3A56
:10498000A41AA41ED2F12003914030FA03F3194374
:10499000904001EBCC71002C01EB0451BDE81040BC
:1049A000A8BF704701F1C0414FF0000001F0004185
:1049B0007047B0FA80F310FA03F100D110BDE41A89
:1049C000173C4805C90AE4E701EB045110BD491042
:1049D00001EB0451BDE810404FEA300002E04FF017
:1049E000000170474A0008BF0042F8D0B2F5001F2E
:1049F00028BF704701F000414FF0000070479EEA69
:104A0000445F07D011EA5E0FBDE8104004BF0021EB
:104A100000207047BDE8104070B5FFF789FE00BF69
:104A200040DFF63E83F00041104670470000E0FF93
:104A300043004FEAD30C4FEA3C0C43401FBF4007F2
:104A40000CF1605113F0FE4F70471CF0006F03D162
:104A500000200CF0004170470CF0004343EA507016
:104A600010B540EACC0000F040FA00BF0000009210
:104A70004FEA0001FFF7AABE4FF000414FF00000DF
:104A8000A1F500217047000090EA010F48BF81F0B6
:104A9000004100F18682421A3CBF801A89184FEA11
:104AA000D0524FF07F4C1CEA410FA2EBD15318BFFC
:104AB0009CEA026F00F03B804FF0004C4CEA002073
:104AC0004CEA012121FA03FC10EB0C0C1ED202F17E
:104AD000FF325FEA1C2040EBC25038BF70471CF029
:104AE0007F0F4FEA400C18BFBCF17F4F38BF7047B3
:104AF000C3F12003994008BF20F00100BCF17F4FB3
:104B000038BF7047A0F1C04000F035BA4FEA3C0012
:104B1000000A40EBC25028BF1CF0FF0F4FEA400CC8
:104B2000E6D018BFBCF17F4F38BF7047EAE79CEA78
:104B3000026F05D010EA5C0F08BF00F0004070471C
:104B400010B500F0D2F900BF64FBBE3E401058BF64
:104B5000C0F14040491058BFC1F140418142EFF3DC
:104B6000008070474FF47F0C1CEAD0121EBF1CEA75
:104B7000D11392EA0C0F93EA0C0F00F0858090EAB3
:104B8000010F48BF42F4807240F4000C41F4000071
:104B90002CF07F4120F07F4000B58142A2EB030260
:104BA0000FF2081CACEB504EC0F100009EF800E084
:104BB0004FEA4E0E00FB0EFC38BF49004FEA2C1C9A
:104BC00002F5FA020CFB0EF34FEACE1E4FEA112C4F
:104BD0004FEAC1210EEB635E42EB22420EFB0CFC5E
:104BE0004FEA1C5300FB03114FEA112C4FEA01312D
:104BF0000EFB0CFC4FEADC4C00FB0C11C14228BF41
:104C000009184CEB03335DF804EB10EB410143EB67
:104C1000C250B2F57C0F38BF704729D512F0F00FA3
:104C20001CBF00F1C04000F000407047008182834B
:104C30008485868788898B8C8D8E8F9192939596AB
:104C400097999A9C9D9FA0A2A3A5A7A8AAACAEB035
:104C5000B2B3B5B7B9BCBEC0C2C5C7C9CCCED1D43A
:104C6000D7D9DCDFE2E6E9ECF0F3F7FAFE0000006A
:104C70004FEA400C0CF1807CBCF17E4F28BF70479E
:104C8000B0F1C04000F077B990EA010F0CEAD113FF
:104C900048BF42F48072624538BF634507D213F4BF
:104CA0007F0F16D080EA010000F00040704710B579
:104CB00000F01BF9097EFC3E00F005B880EA010017
:104CC00000F00040704780EA010000F0004000F072
:104CD00052B912F47F0F04BF0248704780EA010006
:104CE00000F049B90000C07FC10DD1F19E0206DB82
:104CF0004FEA002343F0004323FA02F070470042DA
:104D000007D54FEA4001B1F1FE4F02D24FF000004B
:104D1000704710B500F0E9F84992248000207047F0
:104D20006FEA20007047000010F0004148BF404289
:104D3000B0FA80F310FA03F2C3F19D030BD051EAED
:104D4000C35101EB1220530638BF704700F1010038
:104D500008BF20F001007047B0FA80F310FA03F2A8
:104D6000C3F19D030AD0D90501EB1220530638BFC9
:104D7000704700F1010008BF20F0010070470000FB
:104D800050EA010C00F113801CF5000F58BFBCF570
:104D9000000F01D48842704707D710F5000F58BFA5
:104DA00011F5000F15D488427047894270471CF5F1
:104DB000000F04D5BCF5000FF7D5814270474FF0C6
:104DC000807C1CEB400F38BF1CEB410F01D28142AD
:104DD000704710B500F089F8922449004FF0005058
:104DE0004FF08051FFF7B2BE4FF47F0C1CEAD01297
:104DF0001EBF1CEAD11392EA0C0F93EA0C0F00F0CD
:104E0000478090EA010F48BF42F480724FF0004C97
:104E10004CEA00204CEA012102EB0302A0FB011343
:104E2000A2F50002002918BF43F001035B0028BF70
:104E30004FEA330342EB22425FEA132C4CEBC250A1
:104E40002EBFBCEB436FB2F57C0F70474FEA036C8B
:104E5000BCF1004F08BF20F00100B2F57C0F38BF55
:104E600070470BD582F0FF0212F5803FC8BF704734
:104E700000F1C040D8BF00F00040704700F5000CC2
:104E80005FEA4C0C48BF7047B0F1C04000F073B807
:104E900090EA010F0CEAD11348BF42F480726245D8
:104EA00038BF634504D280EA010000F0004070473B
:104EB00010B500F01AF800BF8900013E00F007B8F5
:104EC00000F009B85FEA410C5FEA1C6C08D080EA88
:104ED000010000F050B85FEA400C5FEA1C6CF6D1AC
:104EE0004FF00040A0F5800070470EF1020E2EF04A
:104EF000030E5EF8044B244204D44FEA4102B2F19F
:104F00007F4F11D84FEA4003B3F17F4F0CD80ED139
:104F10004FEAD07CB2F17F4F0CEB4C0C0CF1020C41
:104F200008BF4CEBD17C04E04FF0080C01E04FEAE5
:104F3000D17C0CEB4C0324FA03F404F00704B4F125
:104F4000040C06D20EEB840CBDE810404CF0010CB2
:104F50006047DFE80CF0070802024FF00040A0F5C0
:104F6000800010BD0846420018BFD2F1807288BF91
:104F700000F0004010BDFF2141EAD050C00570474D
:104F800080F0004090EA010F7FF585AD81F000418F
:104F900000F007B890EA010F48BF81F000413FF5EB
:104FA0007AAD421A04D882F00042A0EB020011440C
:104FB0004FEAD0524FF07F4C1CEA410FA2EBD15385
:104FC00018BF9CEA026F4AD04FF0004C4CEA002018
:104FD0004CEA012121FA03FCB0EB0C0C0FD412F0C7
:104FE000FE0F36D05FEA4C001DD5001240EBC250D8
:104FF00038BF70471CF03F0F18BF70470BE0A2F19D
:1050000001025FEA1C2040EBC25038BF70471CF021
:105010007F0F18BF7047C3F12003994014BF401E93
:1050200020F00100704780084FEA122308BF704744
:10503000B0FA80FCA2EB0C02CCF1280C60FA0CF068
:1050400093EA122F04BF00EBC25070474FEAC370BF
:105050007047130A5FEADC1008BF7047F6E79CEA66
:10506000026F04D010EA5C0F08BF0020704710B533
:10507000FFF73BFF40DFF63E81F000407047000045
:10508000000000000000002F0000000007000700E3
:1050900000147F147F1400242A7F2A1200626408FF
:1050A000132300364955225000000503000000007C
:1050B0001C224100000041221C000014083E08147C
:1050C0000008083E0808000000A06000000808086A
:1050D0000808000060600000002010080402003E84
:1050E0005149453E0000427F40000042615149461F
:1050F000002141454B31001814127F10002745450F
:105100004539003C4A494930000171090503003620
:105110004949493600064949291E00003636000033
:105120000000563600000008142241000014141438
:105130001414000041221408000201510906003233
:105140004959513E007C1211127C007F4949493671
:10515000003E41414122007F4141221C007F4949DC
:105160004941007F09090901003E4149497A007F10
:105170000808087F0000417F4100002040413F01B6
:10518000007F08142241007F40404040007F020C15
:10519000027F007F0408107F003E4141413E007FB6
:1051A00009090906003E4151215E007F091929467F
:1051B0000046494949310001017F0101003F40405B
:1051C000403F001F2040201F003F4038403F006309
:1051D000140814630007087008070061514945432B
:1051E00000007F41410000552A552A5500004141E9
:1051F0007F000004020102040040404040400000E3
:1052000001020400002054545478007F484444387C
:1052100000384444442000384444487F0038545403
:10522000541800087E0901020018A4A4A47C007F81
:10523000080404780000447D4000004080847D0024
:10524000007F102844000000417F4000007C0418CB
:105250000478007C0804047800384444443800FC96
:10526000242424180018242418FC007C08040408B2
:1052700000485454542000043F444020003C404027
:10528000207C001C2040201C003C4030403C00445E
:1052900028102844001CA0A0A07C004464544C4466
:1052A000141414141414F8FCFEFFFFFFFEFCF8F0B5
:1052B000E0F0F8FCFEFFFFFFFEFCF801071F3F7F58
:1052C000FFFFFFFFFFFFFFFFFFFFFF7F3F1F070104
:1052D0000000000000000103070F0F0F070301008B
:1052E00000000000003F065B4F666D7D077F6F008A
:1052F00018242F56626D000000000000000001021B
:10530000030406070809000000000102030400006E
:105310003053000800000020300000006C0100083D
:105320006053000830000020E80C000088010008ED
:10533000000000000000000000000000000000006D
:10534000000000000000000000000000000000005D
:105350000000000010000000010000000024F40024
:0400000508000131BD
:00000001FF
